{
  "_format": "hh-sol-artifact-1",
  "contractName": "Product",
  "sourceName": "contracts/eCommerce.sol",
  "abi": [
    {
      "inputs": [
        {
          "internalType": "address",
          "name": "owner",
          "type": "address"
        },
        {
          "internalType": "string",
          "name": "_description",
          "type": "string"
        },
        {
          "internalType": "string",
          "name": "_img_url",
          "type": "string"
        },
        {
          "internalType": "string",
          "name": "_title",
          "type": "string"
        },
        {
          "internalType": "string",
          "name": "_category",
          "type": "string"
        },
        {
          "internalType": "address",
          "name": "_walletAddress",
          "type": "address"
        },
        {
          "internalType": "address",
          "name": "_tokenAddress",
          "type": "address"
        },
        {
          "internalType": "uint256",
          "name": "_priceInUSD",
          "type": "uint256"
        },
        {
          "internalType": "uint256",
          "name": "_quantity",
          "type": "uint256"
        }
      ],
      "stateMutability": "nonpayable",
      "type": "constructor"
    },
    {
      "inputs": [
        {
          "internalType": "address",
          "name": "owner",
          "type": "address"
        }
      ],
      "name": "OwnableInvalidOwner",
      "type": "error"
    },
    {
      "inputs": [
        {
          "internalType": "address",
          "name": "account",
          "type": "address"
        }
      ],
      "name": "OwnableUnauthorizedAccount",
      "type": "error"
    },
    {
      "anonymous": false,
      "inputs": [
        {
          "indexed": true,
          "internalType": "address",
          "name": "previousOwner",
          "type": "address"
        },
        {
          "indexed": true,
          "internalType": "address",
          "name": "newOwner",
          "type": "address"
        }
      ],
      "name": "OwnershipTransferred",
      "type": "event"
    },
    {
      "inputs": [],
      "name": "category",
      "outputs": [
        {
          "internalType": "string",
          "name": "",
          "type": "string"
        }
      ],
      "stateMutability": "view",
      "type": "function"
    },
    {
      "inputs": [
        {
          "internalType": "uint256",
          "name": "_quantity",
          "type": "uint256"
        }
      ],
      "name": "decreaseQuantity",
      "outputs": [],
      "stateMutability": "nonpayable",
      "type": "function"
    },
    {
      "inputs": [],
      "name": "description",
      "outputs": [
        {
          "internalType": "string",
          "name": "",
          "type": "string"
        }
      ],
      "stateMutability": "view",
      "type": "function"
    },
    {
      "inputs": [],
      "name": "getEthUsdPrice",
      "outputs": [
        {
          "internalType": "int256",
          "name": "",
          "type": "int256"
        }
      ],
      "stateMutability": "view",
      "type": "function"
    },
    {
      "inputs": [],
      "name": "getPriceInToken",
      "outputs": [
        {
          "internalType": "uint256",
          "name": "",
          "type": "uint256"
        }
      ],
      "stateMutability": "view",
      "type": "function"
    },
    {
      "inputs": [],
      "name": "getTokenEthPrice",
      "outputs": [
        {
          "internalType": "int256",
          "name": "",
          "type": "int256"
        }
      ],
      "stateMutability": "view",
      "type": "function"
    },
    {
      "inputs": [],
      "name": "getTokenUsdPrice",
      "outputs": [
        {
          "internalType": "int256",
          "name": "",
          "type": "int256"
        }
      ],
      "stateMutability": "view",
      "type": "function"
    },
    {
      "inputs": [],
      "name": "img_url",
      "outputs": [
        {
          "internalType": "string",
          "name": "",
          "type": "string"
        }
      ],
      "stateMutability": "view",
      "type": "function"
    },
    {
      "inputs": [
        {
          "internalType": "uint256",
          "name": "_quantity",
          "type": "uint256"
        }
      ],
      "name": "increaseQuantity",
      "outputs": [],
      "stateMutability": "nonpayable",
      "type": "function"
    },
    {
      "inputs": [],
      "name": "owner",
      "outputs": [
        {
          "internalType": "address",
          "name": "",
          "type": "address"
        }
      ],
      "stateMutability": "view",
      "type": "function"
    },
    {
      "inputs": [],
      "name": "priceInUSD",
      "outputs": [
        {
          "internalType": "uint256",
          "name": "",
          "type": "uint256"
        }
      ],
      "stateMutability": "view",
      "type": "function"
    },
    {
      "inputs": [],
      "name": "quantity",
      "outputs": [
        {
          "internalType": "uint256",
          "name": "",
          "type": "uint256"
        }
      ],
      "stateMutability": "view",
      "type": "function"
    },
    {
      "inputs": [],
      "name": "renounceOwnership",
      "outputs": [],
      "stateMutability": "nonpayable",
      "type": "function"
    },
    {
      "inputs": [
        {
          "internalType": "address",
          "name": "_ethUsdPriceFeed",
          "type": "address"
        },
        {
          "internalType": "address",
          "name": "_tokenEthPriceFeed",
          "type": "address"
        }
      ],
      "name": "setPriceFeeds",
      "outputs": [],
      "stateMutability": "nonpayable",
      "type": "function"
    },
    {
      "inputs": [
        {
          "internalType": "address",
          "name": "_uniswapRouter",
          "type": "address"
        }
      ],
      "name": "setUniswapRouter",
      "outputs": [],
      "stateMutability": "nonpayable",
      "type": "function"
    },
    {
      "inputs": [],
      "name": "title",
      "outputs": [
        {
          "internalType": "string",
          "name": "",
          "type": "string"
        }
      ],
      "stateMutability": "view",
      "type": "function"
    },
    {
      "inputs": [],
      "name": "tokenAddress",
      "outputs": [
        {
          "internalType": "address",
          "name": "",
          "type": "address"
        }
      ],
      "stateMutability": "view",
      "type": "function"
    },
    {
      "inputs": [
        {
          "internalType": "address",
          "name": "newOwner",
          "type": "address"
        }
      ],
      "name": "transferOwnership",
      "outputs": [],
      "stateMutability": "nonpayable",
      "type": "function"
    },
    {
      "inputs": [],
      "name": "uniswapRouter",
      "outputs": [
        {
          "internalType": "contract IUniswapV2Router02",
          "name": "",
          "type": "address"
        }
      ],
      "stateMutability": "view",
      "type": "function"
    },
    {
      "inputs": [],
      "name": "walletAddress",
      "outputs": [
        {
          "internalType": "address",
          "name": "",
          "type": "address"
        }
      ],
      "stateMutability": "view",
      "type": "function"
    }
  ],
  "bytecode": "0x60806040523480156200001157600080fd5b5060405162001c6638038062001c6683398181016040528101906200003791906200049d565b88600073ffffffffffffffffffffffffffffffffffffffff168173ffffffffffffffffffffffffffffffffffffffff1603620000ad5760006040517f1e4fbdf7000000000000000000000000000000000000000000000000000000008152600401620000a4919062000609565b60405180910390fd5b620000be81620001a660201b60201c565b508760019081620000d0919062000867565b508660029081620000e2919062000867565b508560039081620000f4919062000867565b50846004908162000106919062000867565b5083600560006101000a81548173ffffffffffffffffffffffffffffffffffffffff021916908373ffffffffffffffffffffffffffffffffffffffff16021790555082600660006101000a81548173ffffffffffffffffffffffffffffffffffffffff021916908373ffffffffffffffffffffffffffffffffffffffff16021790555081600781905550806008819055505050505050505050506200094e565b60008060009054906101000a900473ffffffffffffffffffffffffffffffffffffffff169050816000806101000a81548173ffffffffffffffffffffffffffffffffffffffff021916908373ffffffffffffffffffffffffffffffffffffffff1602179055508173ffffffffffffffffffffffffffffffffffffffff168173ffffffffffffffffffffffffffffffffffffffff167f8be0079c531659141344cd1fd0a4f28419497f9722a3daafe3b4186f6b6457e060405160405180910390a35050565b6000604051905090565b600080fd5b600080fd5b600073ffffffffffffffffffffffffffffffffffffffff82169050919050565b6000620002ab826200027e565b9050919050565b620002bd816200029e565b8114620002c957600080fd5b50565b600081519050620002dd81620002b2565b92915050565b600080fd5b600080fd5b6000601f19601f8301169050919050565b7f4e487b7100000000000000000000000000000000000000000000000000000000600052604160045260246000fd5b6200033882620002ed565b810181811067ffffffffffffffff821117156200035a5762000359620002fe565b5b80604052505050565b60006200036f6200026a565b90506200037d82826200032d565b919050565b600067ffffffffffffffff821115620003a0576200039f620002fe565b5b620003ab82620002ed565b9050602081019050919050565b60005b83811015620003d8578082015181840152602081019050620003bb565b60008484015250505050565b6000620003fb620003f58462000382565b62000363565b9050828152602081018484840111156200041a5762000419620002e8565b5b62000427848285620003b8565b509392505050565b600082601f830112620004475762000446620002e3565b5b815162000459848260208601620003e4565b91505092915050565b6000819050919050565b620004778162000462565b81146200048357600080fd5b50565b60008151905062000497816200046c565b92915050565b60008060008060008060008060006101208a8c031215620004c357620004c262000274565b5b6000620004d38c828d01620002cc565b99505060208a015167ffffffffffffffff811115620004f757620004f662000279565b5b620005058c828d016200042f565b98505060408a015167ffffffffffffffff81111562000529576200052862000279565b5b620005378c828d016200042f565b97505060608a015167ffffffffffffffff8111156200055b576200055a62000279565b5b620005698c828d016200042f565b96505060808a015167ffffffffffffffff8111156200058d576200058c62000279565b5b6200059b8c828d016200042f565b95505060a0620005ae8c828d01620002cc565b94505060c0620005c18c828d01620002cc565b93505060e0620005d48c828d0162000486565b925050610100620005e88c828d0162000486565b9150509295985092959850929598565b62000603816200029e565b82525050565b6000602082019050620006206000830184620005f8565b92915050565b600081519050919050565b7f4e487b7100000000000000000000000000000000000000000000000000000000600052602260045260246000fd5b600060028204905060018216806200067957607f821691505b6020821081036200068f576200068e62000631565b5b50919050565b60008190508160005260206000209050919050565b60006020601f8301049050919050565b600082821b905092915050565b600060088302620006f97fffffffffffffffffffffffffffffffffffffffffffffffffffffffffffffffff82620006ba565b620007058683620006ba565b95508019841693508086168417925050509392505050565b6000819050919050565b600062000748620007426200073c8462000462565b6200071d565b62000462565b9050919050565b6000819050919050565b620007648362000727565b6200077c62000773826200074f565b848454620006c7565b825550505050565b600090565b6200079362000784565b620007a081848462000759565b505050565b5b81811015620007c857620007bc60008262000789565b600181019050620007a6565b5050565b601f8211156200081757620007e18162000695565b620007ec84620006aa565b81016020851015620007fc578190505b620008146200080b85620006aa565b830182620007a5565b50505b505050565b600082821c905092915050565b60006200083c600019846008026200081c565b1980831691505092915050565b600062000857838362000829565b9150826002028217905092915050565b620008728262000626565b67ffffffffffffffff8111156200088e576200088d620002fe565b5b6200089a825462000660565b620008a7828285620007cc565b600060209050601f831160018114620008df5760008415620008ca578287015190505b620008d6858262000849565b86555062000946565b601f198416620008ef8662000695565b60005b828110156200091957848901518255600182019150602085019450602081019050620008f2565b8683101562000939578489015162000935601f89168262000829565b8355505b6001600288020188555050505b505050505050565b611308806200095e6000396000f3fe608060405234801561001057600080fd5b506004361061012c5760003560e01c80638da5cb5b116100ad578063c175d50411610071578063c175d504146102d9578063d41edb7b146102f5578063ef430aa614610313578063f2fde38b14610331578063fc602cce1461034d5761012c565b80638da5cb5b146102455780639d76ea5814610263578063a0a8045e14610281578063ab74d7ff1461029f578063bea9849e146102bd5761012c565b806363d6d9b7116100f457806363d6d9b7146101c55780636ad5b3ea146101e1578063715018a6146101ff5780637284e41614610209578063735de9f7146102275761012c565b806302bbce4614610131578063068f158d1461014f57806317fc45e21461016b5780634a79d50c146101895780635be436d9146101a7575b600080fd5b61013961036b565b6040516101469190610bb3565b60405180910390f35b61016960048036038101906101649190610c31565b6103e8565b005b610173610476565b6040516101809190610bb3565b60405180910390f35b61019161047c565b60405161019e9190610d01565b60405180910390f35b6101af61050a565b6040516101bc9190610d3c565b60405180910390f35b6101df60048036038101906101da9190610d83565b61054f565b005b6101e9610573565b6040516101f69190610dbf565b60405180910390f35b610207610599565b005b6102116105ad565b60405161021e9190610d01565b60405180910390f35b61022f61063b565b60405161023c9190610e39565b60405180910390f35b61024d610661565b60405161025a9190610dbf565b60405180910390f35b61026b61068a565b6040516102789190610dbf565b60405180910390f35b6102896106b0565b6040516102969190610d3c565b60405180910390f35b6102a7610751565b6040516102b49190610d3c565b60405180910390f35b6102d760048036038101906102d29190610e54565b6107f2565b005b6102f360048036038101906102ee9190610d83565b61083e565b005b6102fd61089f565b60405161030a9190610bb3565b60405180910390f35b61031b6108a5565b6040516103289190610d01565b60405180910390f35b61034b60048036038101906103469190610e54565b610933565b005b6103556109b9565b6040516103629190610d01565b60405180910390f35b60008061037661050a565b9050600081136103bb576040517f08c379a00000000000000000000000000000000000000000000000000000000081526004016103b290610ecd565b60405180910390fd5b600081670de0b6b3a76400006007546103d49190610f1c565b6103de9190610f8d565b9050809250505090565b6103f0610a47565b81600960006101000a81548173ffffffffffffffffffffffffffffffffffffffff021916908373ffffffffffffffffffffffffffffffffffffffff16021790555080600a60006101000a81548173ffffffffffffffffffffffffffffffffffffffff021916908373ffffffffffffffffffffffffffffffffffffffff1602179055505050565b60085481565b6003805461048990610fed565b80601f01602080910402602001604051908101604052809291908181526020018280546104b590610fed565b80156105025780601f106104d757610100808354040283529160200191610502565b820191906000526020600020905b8154815290600101906020018083116104e557829003601f168201915b505050505081565b6000806105156106b0565b90506000610521610751565b90506000670de0b6b3a7640000838361053a919061101e565b6105449190611096565b905080935050505090565b610557610a47565b80600860008282546105699190611100565b9250508190555050565b600560009054906101000a900473ffffffffffffffffffffffffffffffffffffffff1681565b6105a1610a47565b6105ab6000610ace565b565b600180546105ba90610fed565b80601f01602080910402602001604051908101604052809291908181526020018280546105e690610fed565b80156106335780601f1061060857610100808354040283529160200191610633565b820191906000526020600020905b81548152906001019060200180831161061657829003601f168201915b505050505081565b600b60009054906101000a900473ffffffffffffffffffffffffffffffffffffffff1681565b60008060009054906101000a900473ffffffffffffffffffffffffffffffffffffffff16905090565b600660009054906101000a900473ffffffffffffffffffffffffffffffffffffffff1681565b600080600960009054906101000a900473ffffffffffffffffffffffffffffffffffffffff1673ffffffffffffffffffffffffffffffffffffffff1663feaf968c6040518163ffffffff1660e01b815260040160a060405180830381865afa158015610720573d6000803e3d6000fd5b505050506040513d601f19601f8201168201806040525081019061074491906111b7565b5050509150508091505090565b600080600a60009054906101000a900473ffffffffffffffffffffffffffffffffffffffff1673ffffffffffffffffffffffffffffffffffffffff1663feaf968c6040518163ffffffff1660e01b815260040160a060405180830381865afa1580156107c1573d6000803e3d6000fd5b505050506040513d601f19601f820116820180604052508101906107e591906111b7565b5050509150508091505090565b6107fa610a47565b80600b60006101000a81548173ffffffffffffffffffffffffffffffffffffffff021916908373ffffffffffffffffffffffffffffffffffffffff16021790555050565b806008541015610883576040517f08c379a000000000000000000000000000000000000000000000000000000000815260040161087a9061127e565b60405180910390fd5b8060086000828254610895919061129e565b9250508190555050565b60075481565b600480546108b290610fed565b80601f01602080910402602001604051908101604052809291908181526020018280546108de90610fed565b801561092b5780601f106109005761010080835404028352916020019161092b565b820191906000526020600020905b81548152906001019060200180831161090e57829003601f168201915b505050505081565b61093b610a47565b600073ffffffffffffffffffffffffffffffffffffffff168173ffffffffffffffffffffffffffffffffffffffff16036109ad5760006040517f1e4fbdf70000000000000000000000000000000000000000000000000000000081526004016109a49190610dbf565b60405180910390fd5b6109b681610ace565b50565b600280546109c690610fed565b80601f01602080910402602001604051908101604052809291908181526020018280546109f290610fed565b8015610a3f5780601f10610a1457610100808354040283529160200191610a3f565b820191906000526020600020905b815481529060010190602001808311610a2257829003601f168201915b505050505081565b610a4f610b92565b73ffffffffffffffffffffffffffffffffffffffff16610a6d610661565b73ffffffffffffffffffffffffffffffffffffffff1614610acc57610a90610b92565b6040517f118cdaa7000000000000000000000000000000000000000000000000000000008152600401610ac39190610dbf565b60405180910390fd5b565b60008060009054906101000a900473ffffffffffffffffffffffffffffffffffffffff169050816000806101000a81548173ffffffffffffffffffffffffffffffffffffffff021916908373ffffffffffffffffffffffffffffffffffffffff1602179055508173ffffffffffffffffffffffffffffffffffffffff168173ffffffffffffffffffffffffffffffffffffffff167f8be0079c531659141344cd1fd0a4f28419497f9722a3daafe3b4186f6b6457e060405160405180910390a35050565b600033905090565b6000819050919050565b610bad81610b9a565b82525050565b6000602082019050610bc86000830184610ba4565b92915050565b600080fd5b600073ffffffffffffffffffffffffffffffffffffffff82169050919050565b6000610bfe82610bd3565b9050919050565b610c0e81610bf3565b8114610c1957600080fd5b50565b600081359050610c2b81610c05565b92915050565b60008060408385031215610c4857610c47610bce565b5b6000610c5685828601610c1c565b9250506020610c6785828601610c1c565b9150509250929050565b600081519050919050565b600082825260208201905092915050565b60005b83811015610cab578082015181840152602081019050610c90565b60008484015250505050565b6000601f19601f8301169050919050565b6000610cd382610c71565b610cdd8185610c7c565b9350610ced818560208601610c8d565b610cf681610cb7565b840191505092915050565b60006020820190508181036000830152610d1b8184610cc8565b905092915050565b6000819050919050565b610d3681610d23565b82525050565b6000602082019050610d516000830184610d2d565b92915050565b610d6081610b9a565b8114610d6b57600080fd5b50565b600081359050610d7d81610d57565b92915050565b600060208284031215610d9957610d98610bce565b5b6000610da784828501610d6e565b91505092915050565b610db981610bf3565b82525050565b6000602082019050610dd46000830184610db0565b92915050565b6000819050919050565b6000610dff610dfa610df584610bd3565b610dda565b610bd3565b9050919050565b6000610e1182610de4565b9050919050565b6000610e2382610e06565b9050919050565b610e3381610e18565b82525050565b6000602082019050610e4e6000830184610e2a565b92915050565b600060208284031215610e6a57610e69610bce565b5b6000610e7884828501610c1c565b91505092915050565b7f496e76616c696420746f6b656e20555344207072696365000000000000000000600082015250565b6000610eb7601783610c7c565b9150610ec282610e81565b602082019050919050565b60006020820190508181036000830152610ee681610eaa565b9050919050565b7f4e487b7100000000000000000000000000000000000000000000000000000000600052601160045260246000fd5b6000610f2782610b9a565b9150610f3283610b9a565b9250828202610f4081610b9a565b91508282048414831517610f5757610f56610eed565b5b5092915050565b7f4e487b7100000000000000000000000000000000000000000000000000000000600052601260045260246000fd5b6000610f9882610b9a565b9150610fa383610b9a565b925082610fb357610fb2610f5e565b5b828204905092915050565b7f4e487b7100000000000000000000000000000000000000000000000000000000600052602260045260246000fd5b6000600282049050600182168061100557607f821691505b60208210810361101857611017610fbe565b5b50919050565b600061102982610d23565b915061103483610d23565b925082820261104281610d23565b91507f8000000000000000000000000000000000000000000000000000000000000000841460008412161561107a57611079610eed565b5b828205841483151761108f5761108e610eed565b5b5092915050565b60006110a182610d23565b91506110ac83610d23565b9250826110bc576110bb610f5e565b5b600160000383147f8000000000000000000000000000000000000000000000000000000000000000831416156110f5576110f4610eed565b5b828205905092915050565b600061110b82610b9a565b915061111683610b9a565b925082820190508082111561112e5761112d610eed565b5b92915050565b600069ffffffffffffffffffff82169050919050565b61115381611134565b811461115e57600080fd5b50565b6000815190506111708161114a565b92915050565b61117f81610d23565b811461118a57600080fd5b50565b60008151905061119c81611176565b92915050565b6000815190506111b181610d57565b92915050565b600080600080600060a086880312156111d3576111d2610bce565b5b60006111e188828901611161565b95505060206111f28882890161118d565b9450506040611203888289016111a2565b9350506060611214888289016111a2565b925050608061122588828901611161565b9150509295509295909350565b7f496e73756666696369656e74207175616e746974790000000000000000000000600082015250565b6000611268601583610c7c565b915061127382611232565b602082019050919050565b600060208201905081810360008301526112978161125b565b9050919050565b60006112a982610b9a565b91506112b483610b9a565b92508282039050818111156112cc576112cb610eed565b5b9291505056fea264697066735822122006659d3c8f053e48f7fdb82c42a743d98b4ef9b7adea7a4c51ece86ab0bf71c664736f6c63430008180033",
  "linkReferences": {},
  "deployedLinkReferences": {}
}